S0140000524742204C454420437562652E73726563A1
S11300000C9434000C943E000C943E000C943E007E
S11300100C943E000C943E000C943E000C943E0064
S11300200C943E000C943E000C943E000C943E0054
S11300300C943E000C943E000C943E000C943E0044
S11300400C943E000C943E000C943E000C943E0034
S11300500C943E000C943E000C943E000C943E0024
S11300600C943E000C943E0011241FBECFEFD8E048
S1130070DEBFCDBF0E9440000C94B4010C9400007C
S11300800E9423010E949E010E942C010E944D00A7
S11300900E9481000E94C200FBCFCF93DF93CDB7B3
S11300A0DEB7C05CD1090FB6F894DEBF0FBECDBF7A
S11300B0FE01319680ECDF011D928A95E9F78DB738
S11300C09EB7805C91090FB6F8949EBF0FBE8DBF9A
S11300D0ADB7BEB7119680EC01900D928A95E1F709
S11300E00E9430010FB6F894DEBF0FBECDBFC054DE
S11300F0DF4F0FB6F894DEBF0FBECDBFDF91CF91B7
S113010008950F931F93CF93DF93CDB7DEB7C05CF1
S1130110D1090FB6F894DEBF0FBECDBF8E010F5FBD
S11301201F4F80ECF80111928A95E9F740E450E002
S11301306FEF70E0C8010E94AD018DB79EB7805C7F
S113014091090FB6F8949EBF0FBE8DBFADB7BEB771
S1130150119680ECF80101900D928A95E1F70E94C6
S113016030010FB6F894DEBF0FBECDBFC054DF4FD1
S11301700FB6F894DEBF0FBECDBFDF91CF911F91B4
S11301800F910895CF93DF93CDB7DEB7C05CD1094B
S11301900FB6F894DEBF0FBECDBFFE01319680ECE2
S11301A0DF011D928A95E9F7E05CFF4F80E090E063
S11301B07FEF61E8009749F08730910531F088338B
S11301C0910519F08F33910511F4708313C09C01CC
S11301D0AC01485051094133510558F4AC01477002
S11301E05527452B31F02F5F3F4F27703327232BA3
S11301F009F460830196319680349105D9F68DB760
S11302009EB7805C91090FB6F8949EBF0FBE8DBF58
S1130210ADB7BEB7119680ECFE01319601900D92F8
S11302208A95E1F70E9430010FB6F894DEBF0FBE45
S1130230CDBFC054DF4F0FB6F894DEBF0FBECDBFA5
S1130240DF91CF91089587B1806387B90895459A66
S113025008954598449808958FEF8AB98BB9089505
S11302607F928F929F92AF92BF92CF92DF92EF9242
S1130270FF920F931F93CF93DF93CDB7DEB78E0119
S1130280005F1F4FC12CD12C77247A94AA24A39405
S1130290B12C3DC0F70181917F010E94A801E814AF
S11302A0F904C1F77801F0E4EF0EF11C480188E489
S11302B0880E911CF70181917F010E94A801E81426
S11302C0F904C1F77801F8E0EF0EF11CF80181910F
S11302D08F010E94A801E016F106C1F77BB89BB11B
S11302E095010C2C02C0220F331F0A94E2F7822FCF
S11302F0809589238BB90E9427010E942901FFEF71
S1130300CF1ADF0A870188E0C816D10449F07801C2
S1130310E0E8EE0EF11C4801F8E88F0E911CBACF0C
S1130320DF91CF911F910F91FF90EF90DF90CF90CD
S1130330BF90AF909F908F907F90089584B18C620E
S113034084B924988CB580658CBD8DB58DBD089518
S11303508EBD0DB407FEFDCF0895DC0101C06D9381
S10F036041505040E0F70895F894FFCF9E
S9030000FC
