:100000000C9434000C9446000C9446000C9446006A
:100010000C9446000C9446000C9446000C94460048
:100020000C9446000C9446000C9446000C94460038
:100030000C9446000C9446000C9446000C94460028
:100040000C9446000C9446000C945A010C94460003
:100050000C9446000C9446000C9446000C94460008
:100060000C9446000C94460011241FBECFEFD8E03C
:10007000DEBFCDBF22E0A0E0B1E001C01D92A138FB
:10008000B207E1F70E9457000C94B9010C940000EC
:100090000E94400184E090E00E944F010E94B7005E
:1000A0000E94AC0087B18C6087B9789408950E9453
:1000B00048008DB79EB7805C91090FB6F8949EBF3B
:1000C0000FBE8DBFADB7BEB7119680ECE1E0F1E099
:1000D00001900D928A95E1F70E94EB008DB79EB7D3
:1000E00080549F4F0FB6F8949EBF0FBE8DBFE1CFD7
:1000F000CF93DF93CDB7DEB7C05CD1090FB6F894CC
:10010000DEBF0FBECDBFFE01319680ECDF011D9238
:100110008A95E9F78DB79EB7805C91090FB6F89480
:100120009EBF0FBE8DBFADB7BEB7119680EC0190DC
:100130000D928A95E1F70E94EB000FB6F894DEBFAE
:100140000FBECDBFC054DF4F0FB6F894DEBF0FBE59
:10015000CDBFDF91CF91089587B1806387B90E94A9
:1001600078000895459A45980895449808958AB16D
:100170008C6F8AB984B1836084B98BB18C6F8BB971
:1001800085B1836085B908958830E8F4823070F0D5
:100190004BB121E030E0B90102C0660F771F8A95AC
:1001A000E2F7CB01809584238BB9089545B121E016
:1001B00030E0B90102C0660F771F8A95E2F7CB01E4
:1001C0008095842385B908958BB18C6F8BB985B1E7
:1001D000836085B90895BF92CF92DF92EF92FF922C
:1001E0000F931F93CF93DF93CDB7DEB78E01045FDC
:1001F0001F4FB12C32C0F70181917F010E944A014B
:10020000EC14FD04C1F77801F0E4EF0EF11C680175
:1002100088E4C80ED11CF70181917F010E944A0138
:10022000EC14FD04C1F77801F8E0EF0EF11CF801C1
:1002300081918F010E944A010E151F05C1F70E948E
:10024000E4008B2D0E94C4000E94B2000E94B50001
:10025000B3948701F8E0BF1649F0780180E8E80E12
:10026000F11C6801E8E8CE0ED11CC5CFDF91CF911B
:100270001F910F91FF90EF90DF90CF90BF90089566
:1002800084B18C6284B924988CB580658CBD8DB5A1
:100290008DBD08958EBD0DB407FEFDCF08959093DA
:1002A000C5008093C40088E98093C1008EE08093EC
:1002B000C20008951F920F920FB60F9211248F93D0
:1002C000AF93BF93EF93FF9380910001803470F45C
:1002D000E0910001F0E08091C600EF53FE4F808373
:1002E000809100018F5F8093000123C08091000105
:1002F000882374F0E0910001F0E08091C600EF5394
:10030000FE4F8083809100018F5F8093000111C0B8
:1003100080910001803C68F4E0910001F0E0809160
:10032000C600EF53FE4F8083809100018F5F809362
:10033000000180910001803C90F01092000180EC5F
:10034000E1ECF1E0A1E0B1E001900D928A95E1F7D6
:10035000E1ECF1E080ECDF011D928A95E9F7FF9175
:10036000EF91BF91AF918F910F900FBE0F901F90A3
:060370001895F894FFCF80
:00000001FF
