:100000000C9434000C9446000C9446000C9446006A
:100010000C9446000C9446000C9446000C94460048
:100020000C9446000C9446000C9446000C94460038
:100030000C9446000C9446000C9446000C94460028
:100040000C9446000C9446000C945E010C944600FF
:100050000C9446000C9446000C9446000C94460008
:100060000C9446000C94460011241FBECFEFD8E03C
:10007000DEBFCDBF22E0A0E0B1E001C01D92A138FB
:10008000B207E1F70E9457000C94BD010C940000E8
:100090000E94440184E090E00E9453010E94E0002D
:1000A0000E94AC0087B18C6087B9789408950E9453
:1000B00048008DB79EB7805C91090FB6F8949EBF3B
:1000C0000FBE8DBFADB7BEB7119680ECE1E0F1E099
:1000D00001900D928A95E1F70E94E9008DB79EB7D5
:1000E00080549F4F0FB6F8949EBF0FBE8DBFE1CFD7
:1000F000CF93DF93CDB7DEB7C05CD1090FB6F894CC
:10010000DEBF0FBECDBFFE01319680ECDF011D9238
:100110008A95E9F78DB79EB7805C91090FB6F89480
:100120009EBF0FBE8DBFADB7BEB7119680EC0190DC
:100130000D928A95E1F70E94E9000FB6F894DEBFB0
:100140000FBECDBFC054DF4F0FB6F894DEBF0FBE59
:10015000CDBFDF91CF91089587B1806387B90E94A9
:1001600078000895459A4598089544980895449ACA
:1001700008958830E8F4823070F04BB121E030E02F
:10018000B90102C0660F771F8A95E2F7CB0180950F
:1001900084238BB9089545B121E030E0B90102C054
:1001A000660F771F8A95E2F7CB018095842385B986
:1001B00008958BB18C6F8BB985B1836085B9089533
:1001C0008AB18C6F8AB984B1836084B90E94D900E6
:1001D0000895BF92CF92DF92EF92FF920F931F93F9
:1001E000CF93DF93CDB7DEB78E01045F1F4FB12CE5
:1001F00038C0F70181917F010E944E01EC14FD048B
:10020000C1F77801F0E4EF0EF11C680188E4C80E34
:10021000D11CF70181917F010E944E01EC14FD0475
:10022000C1F77801F8E0EF0EF11CF80181918F0120
:100230000E944E010E151F05C1F70E94D9000E94B1
:10024000B700FDE0FA95F1F700000E94B2008B2D97
:100250000E94B9000E94B500B394870188E0B816E7
:1002600049F07801E0E8EE0EF11C6801F8E8CF0EE5
:10027000D11CBFCFDF91CF911F910F91FF90EF90D5
:10028000DF90CF90BF90089584B18C6284B9249898
:100290008CB580658CBD8DB58DBD08958EBD0DB4BA
:1002A00007FEFDCF08959093C5008093C40088E9B0
:1002B0008093C1008EE08093C20008951F920F9238
:1002C0000FB60F9211248F93AF93BF93EF93FF93C9
:1002D00080910001803470F4E0910001F0E08091A1
:1002E000C600EF53FE4F8083809100018F5F8093A3
:1002F000000123C080910001882374F0E091000187
:10030000F0E08091C600EF53FE4F808380910001A2
:100310008F5F8093000111C080910001803C68F4E0
:10032000E0910001F0E08091C600EF53FE4F808322
:10033000809100018F5F8093000180910001803CDB
:1003400090F01092000180ECE1ECF1E0A1E0B1E06E
:1003500001900D928A95E1F7E1ECF1E080ECDF018C
:100360001D928A95E9F7FF91EF91BF91AF918F911F
:0E0370000F900FBE0F901F901895F894FFCFBE
:00000001FF
